:03000000020A7081
:0C0A7000787FE4F6D8FD758115020AB706
:080E0D00020800C8020E0000FB
:100DEE00758901758A65758CFCD28C308DFDC28C2F
:030DFE00C28D2281
:040D9B007F0A7E004D
:100D9F00E4FDFCC3ED9FEE6480F8EC648098500A8C
:0A0DAF00120DEE0DBD00010C80E9ED
:010DB9002217
:0C0E0100758901758BFC758D4BD28E221B
:050E1600C28EC28F2214
:100AFC007C00AF03AE021209D77C007D0A1209D725
:040B0C00AE04AF057F
:100B1000EE7069EFB40A005063900B20F828287338
:100B2000020B3E020B42020B48020B4E020B570215
:100B30000B5B020B61020B67020B70020B74C2901D
:100B40008002D290C291800AC290D2918004D29049
:100B5000D291C292C29322C2908002D290C291805E
:100B60000AC290D2918004D290D291D292C29322A2
:0D0B7000C2908002D290C291C292D2932214
:100D3B00AB07AA06120B05C297120D9BD2977D0A21
:100D4B00120AFCC296120D9BD2967D64120AFCC24B
:100D5B0095120D9BD295AE02AF037C037DE8120B6F
:090D6B0002C294120D9BD29422E5
:060DBA007A007C007E00BF
:100DC00030800122308105AE04AF0522308205AEAD
:090DD00002AF03227E007F6322C2
:100B7D00751200751332C2A3C2A47B037D027F01DF
:100B8D00120DBAEF64634E600122AF13AE12120D57
:100B9D009FD2A3C2A47B067D057F04120DBAEF641C
:100BAD00634E600122AF13AE12120D9FC2A3D2A4E9
:100BBD007B097A007D087C007F077E00120DC0EF57
:100BCD0064634E600122AF13AE12120D9FD2A3D2F9
:100BDD00A47BF67AFFE4FDFC7FFB7EFF120DC0EFD8
:0D0BED0064634E600122AF13AE12120D9F23
:030BFA00020B7D6E
:100DD900120CABAF0DAE0C120D3BE50D450C70F3CB
:050DE900120BFD80EE7D
:100C5A008E148F15C2B1D2B0E4F50EF50FAF0FAEF8
:100C6A000E120B10AC14AD15EC12090BE4FBFAF9D9
:100C7A00783F120800120944120D9F050FE50F7004
:100C8A0002050ED3940AE50E6480948040CFD2B157
:100C9A00E51525E0FFE51433FE120D9FC2B1C2B07F
:010CAA002227
:03000300020CAB41
:100CAB00C0E0C0F0C083C082C0D075D000C000C00F
:100CBB0001C002C003C004C005C006C007C2B1C258
:100CCB00B0120CFBD2AFD2ABD2A8D2AA85080C853E
:100CDB00090D120E01D007D006D005D004D003D0D9
:100CEB0002D001D000D0D0D082D083D0F0D0E0326F
:100CFB009000007C007D0AAF82AE831209C58E8303
:100D0B008F82E5112582F582E5103583F583120B71
:100D1B007D8E108F117F2C7E01120D9FC3E5106409
:0F0D2B0080948050CE858308858209AE83AF8285
:010D3A002296
:03001300020BFDE0
:100BFD00C0E0C0F0C083C082C0D075D000C000C0BE
:100C0D0001C002C003C004C005C006C007C2AFD2F8
:100C1D0097D296D295D294120E16750A00750B00C6
:100C2D0085080C85090D7FF47E01120C5AD2AF1286
:100C3D000E01D007D006D005D004D003D002D001CC
:0D0C4D00D000D0D0D082D083D0F0D0E032E3
:03001B00020D745F
:100D7400C0E0120E16050BE50B7002050A64C845A7
:100D84000A700EE50D150D7002150C750A00750B31
:070D940000120E01D0E03255
:10080000EC4D6011E8497017ED33EC3304600DE4F2
:10081000FCFFFEFD22E933E8330470F80209B01250
:10082000097B58046009E4CC248150062850090251
:1008300009BA2840030209B7C0E0EB4A7044B98006
:1008400006D0E0FB0209A6EF4E701CBD8008EBFF4E
:10085000EAFEE9FD80EBE98DF0A4FEE5F00208E98F
:10086000E9CDF9EAFEEBFFEF89F0A4FCE5F0CE89D3
:10087000F0A42EFFE435F0CD89F0A42DFEE435F090
:100880008067EF4E7005BD80D780C3EF8BF0A4ACBE
:10089000F0EE8BF0A42CFCE435F0F8EF8AF0A42CF9
:1008A000E5F038FCE433CB8DF0A42CFCE5F03BF80C
:1008B000EE8AF0A42CFCE5F038F8E433CF89F0A4FC
:1008C0002CFCE5F038CF3400CE89F0A42FFFE5F002
:1008D0003EFEE433C98DF0A42EFEE5F039CD8AF05A
:1008E000A42FFFE5F03EFEE43DFD33D0E0FB5007D2
:1008F0000BBB000F0209BAEC2CFCEF33FFEE33FE0A
:06090000ED33FD02099237
:1009060075F020800E75F010800575F0087D007E6C
:10091600007F003392D530D503120A0DEC33401018
:10092600EF33FFEE33FEED33FDEC33FCD5F0ED2275
:0E093600E5F0247EA2D513CC92E7CDCEFF22B1
:10094400EDD2E7CD33EC3392D524814006E4FFFEAB
:10095400FDFC22FCE4CFCECDCC24E0501174FF800A
:10096400EDC3CC13CCCD13CDCE13CECF13CF0470A7
:07097400F030D5DE020A0D90
:10097B00E9D2E7C933E833F892D5EDD2E7CD33ECC2
:07098B0033FC5002B2D5223B
:10099200EC30E7100FBF000C0EBE00080DBD0004C6
:1009A2000BEB6014A2D5EB13FCED92E7FD2274FF72
:1009B200FCFDFEFF22E480F8A2D574FF13FC7D80CB
:0309C200E480EFDF
:100A7C00020DD9E493A3F8E493A34003F68001F2AA
:100A8C0008DFF48029E493A3F85407240CC8C3337B
:100A9C00C4540F4420C8834004F456800146F6DF4A
:100AAC00E4800B0102040810204080900E0DE47EBF
:100ABC00019360BCA3FF543F30E509541FFEE4933F
:100ACC00A360010ECF54C025E060A840B8E493A306
:100ADC00FAE493A3F8E493A3C8C582C8CAC583CA31
:100AEC00F0A3C8C582C8CAC583CADFE9DEE780BEE9
:010E150000DC
:1009C500EF8DF0A4A8F0CF8CF0A428CE8DF0A42E46
:0209D500FE2200
:1009D700C2D5EC30E709B2D5E4C39DFDE49CFCEE3B
:1009E70030E715B2D5E4C39FFFE49EFE120A1BC38E
:1009F700E49DFDE49CFC8003120A1B30D507C3E489
:060A07009FFFE49EFE22A9
:0E0A0D00C3E49FFFE49EFEE49DFDE49CFC22FA
:100A1B00BC000BBE0029EF8DF084FFADF022E4CCBF
:100A2B00F875F008EF2FFFEE33FEEC33FCEE9DEC88
:100A3B00984005FCEE9DFE0FD5F0E9E4CEFD22EDCE
:100A4B00F8F5F0EE8420D21CFEADF075F008EF2F18
:100A5B00FFED33FD4007985006D5F0F222C398FD09
:050A6B000FD5F0EA22A6
:00000001FF
