:0300000002089D56
:0C089D00787FE4F6D8FD7581110208E4B4
:040B4000020800C8DF
:100AFE00758901758A65758CFCD28C308DFDC28C22
:030B0E00C28D2273
:040AC9007F417E00EB
:100ACD00E4FDFCC3ED9FEE6480F8EC648098500A61
:0A0ADD00120AFE0DBD00010C80E9B5
:010AE70022EC
:0C0B2300758901758BFC758D4BD28E22FC
:050B3B00C28EC28F22F2
:0C0B2F00120B11AF0DAE0C120A2480F75F
:100B1100120A6DD2AFD2ABD2A885080C85090D029D
:020B21000B23A4
:100A6D00E50F2511F511E50E3510F510FEAF117CD2
:100A7D00007D0A1208008E108F111209AA8E0E8F9A
:100A8D000FC3E50E6480948050D68510088511093A
:040A9D00AE10AF11D7
:010AA1002232
:1009AA00C280C2812082057E007F01222083057ECB
:1009BA00007F02222084057E007F0322120AC9D208
:1009CA0080C2812082037F04222083057E007F0566
:1009DA00222084057E007F0622120AC9C280D281A3
:1009EA002082037F07222083057E007F082220843D
:1009FA00057E007F0922120AC9D280D2812082058F
:100A0A007EFF7FFF22208304E4FEFF222084057EEE
:0A0A1A00FF7FFE22120AC90209AA9A
:100AE800C286D2877FE87E03120ACDD286C2877F6C
:060AF8000A7E00020ACD97
:100A24008E0E8F0F120932C2977F0A7E00120ACDF2
:100A3400D2977D0A120929C2967F0A7E00120ACD36
:100A4400D2967D64120929C2957F0A7E00120ACDCE
:100A5400D295AE0EAF0F7C037DE812092FC2947FAE
:090A64000A7E00120ACDD2942290
:03001B00020AA234
:100AA200C0E0120B3B050BE50B7002050A64C8455A
:100AB2000A700EE50D150D7002150C750A00750B06
:070AC20000120B23D0E0320B
:10092900AE0EAF0F7C001208127C007D0A1208126D
:04093900AE04AF0554
:10093D00EE7069EFB40A00506390094DF8282873E2
:10094D0002096B02096F02097502097B0209840213
:10095D00098802098E02099402099D0209A1C2901B
:10096D008002D290C291800AC290D2918004D2901E
:10097D00D291C292C29322C2908002D290C2918033
:10098D000AC290D2918004D290D291D292C2932277
:0D099D00C2908002D290C291C292D29322E9
:1008A900020B2FE493A3F8E493A34003F68001F22B
:1008B90008DFF48029E493A3F85407240CC8C33350
:1008C900C4540F4420C8834004F456800146F6DF1F
:1008D900E4800B0102040810204080900B40E47E64
:1008E900019360BCA3FF543F30E509541FFEE49314
:1008F900A360010ECF54C025E060A840B8E493A3DB
:10090900FAE493A3F8E493A3C8C582C8CAC583CA05
:10091900F0A3C8C582C8CAC583CADFE9DEE780BEBD
:010B440000B0
:10080000EF8DF0A4A8F0CF8CF0A428CE8DF0A42E0C
:02081000FE22C6
:10081200C2D5EC30E709B2D5E4C39DFDE49CFCEE01
:1008220030E715B2D5E4C39FFFE49EFE120848C329
:10083200E49DFDE49CFC800312084830D507C3E424
:060842009FFFE49EFE2270
:10084800BC000BBE0029EF8DF084FFADF022E4CC94
:10085800F875F008EF2FFFEE33FEEC33FCEE9DEC5D
:10086800984005FCEE9DFE0FD5F0E9E4CEFD22EDA3
:10087800F8F5F0EE8420D21CFEADF075F008EF2FED
:10088800FFED33FD4007985006D5F0F222C398FDDE
:050898000FD5F0EA227B
:00000001FF
