:03000000020A9D54
:0C0A9D00787FE4F6D8FD758120020AE4A1
:100CFB005175616C206F20696E74657276616C6FD3
:100D0B00007061726120746F6D6172206167756133
:100D1B003F00486F7261206461206167756121211A
:100D2B002100546F6D6520737561206167756121BA
:030D3B0021210073
:080F2700020A00C8C100C1016B
:100EA100758901758A65758CFCD28C308DFDC28C7B
:030EB100C28D22CD
:040E32007F0A7E00B5
:100E3600E4FDFCC3ED9FEE6480F8EC648098500AF4
:0A0E4600120EA10DBD00010C80E9A1
:010E5000227F
:0C0EE600758901758BFC758D4BD28E2236
:050F4200C28EC28F22E7
:100B29007C00AF03AE02120A047C007D0A120A049B
:040B3900AE04AF0552
:100B3D00EE7069EFB40A005063900B4DF8282873DE
:100B4D00020B6B020B6F020B75020B7B020B840207
:100B5D000B88020B8E020B94020B9D020BA1C2900F
:100B6D008002D290C291800AC290D2918004D2901C
:100B7D00D291C292C29322C2908002D290C2918031
:100B8D000AC290D2918004D290D291D292C2932275
:0D0B9D00C2908002D290C291C292D29322E7
:100D7B00AB07AA06120B32C297120E32D2977D0A1C
:100D8B00120B29C296120E32D2967D64120B29C217
:100D9B0095120E32D295AE02AF037C037DE8120B97
:090DAB002FC294120E32D29422E0
:060E51007A007C007E0027
:100E570030800122308105AE04AF0522308205AE15
:090E670002AF03227E007F63222A
:100BAA00751200751328C2B6C2B77B037D027F0196
:100BBA00120E51EF64634E600122AF13AE12120E91
:100BCA0036D2B6C2B77B067D057F04120E51EF649A
:100BDA00634E600122AF13AE12120E36C2B6D2B7FE
:100BEA007B097A007D087C007F077E00120E57EF92
:100BFA0064634E600122AF13AE12120E36D2B6D221
:100C0A00B77BF67AFFE4FDFC7FFB7EFF120E57EFFF
:0D0C1A0064634E600122AF13AE12120E365D
:030C2700020BAA13
:100EB40075A038120EC675A006120EC6120F3C029B
:020EC4000F36E7
:030F1500120F3682
:060F1800E4F5A0020EC684
:060F300075A0C0020EC610
:060DB4008B128A13891462
:100DBA00E4F515C3E515941074809480501AAB12AB
:100DCA00AA13A9148515827583001209C56009F54D
:080DDA00A0120ED6051580DB06
:010DE20022EE
:100EC600C2B0D2B17F017E00120E36C2B1020E361A
:100ED600D2B0D2B17F057E00120E36C2B1020E36F6
:060F360075A001020EC6C9
:100E8900120F157BFF7A0C79FB120DB4120F307B10
:080E9900FF7A0D790C020DB483
:060F3C0075A00C020EC6B8
:0C0EF200120F157BFF7A0D791D020DB464
:100E7000120F36120F187BFF7A0D792D120DB47FE9
:090E8000DC7E05120E36020F366D
:0B0F0A00120F54120F5AC286C2872239
:100C9F008E108F11C286D2877C007D07120A048EB8
:100CAF00108F11E4F50CF50DAF0DAE0C120B3DAC22
:100CBF0010AD11EC12090BE4FBFAF9783F120800A2
:100CCF00120944120E36050DE50D7002050CD39472
:100CDF000AE50C6480948040CFD286E51125E0FFB1
:0C0CEF00E51033FE120E36C286C28722CA
:030F5100D2842225
:030F5400C2842232
:030F5700D285221E
:030F5A00C285222B
:100DE300120EFEAF0FAE0E120D7B200006E50F456F
:100DF3000E7009C200120D3ED2AA80E73001E4C290
:080E030001120C2AD2A880DBC9
:0C0EFE00120F0A120EB4120F1E020C2A72
:090F1E00D2AFD2ABD2A8D2AA22B4
:100C2A00E4F510F511120F42F50AF50B120E89AE12
:100C3A000AAF0B7C007D0A1209F28E0A8F0BE511AE
:100C4A00250BF50BE510350AF50A120BAA8E108F43
:100C5A00117FC87E00120E36C3E51064809480505E
:100C6A00CEC3E50B9405E50A648094805008750AA2
:100C7A0000750B058013D3E50B940FE50A64809485
:100C8A00A74006750A27750B0F120F36850A0E85BF
:050C9A000B0F020EE645
:100D3E00C2AF120F51120EF2120F54D297D296D298
:100D4E0095D294120F42E4F508F509850A0E850B2B
:100D5E000F120F577FDC7E05120C9F120F5A120FC7
:0D0D6E0051120E70120F54120EE6D2AF2279
:03000300020F47A2
:050F4700D201C2A83236
:03001300020F4C8D
:050F4C00D200C2AA3230
:03001B00020E0BC7
:100E0B00C0E0120F420509E5097002050864C845E8
:100E1B0008700EE50F150F7002150E750800750999
:070E2B0000120EE6D0E032D8
:10080000EC4D6011E8497017ED33EC3304600DE4F2
:10081000FCFFFEFD22E933E8330470F80209B01250
:10082000097B58046009E4CC248150062850090251
:1008300009BA2840030209B7C0E0EB4A7044B98006
:1008400006D0E0FB0209A6EF4E701CBD8008EBFF4E
:10085000EAFEE9FD80EBE98DF0A4FEE5F00208E98F
:10086000E9CDF9EAFEEBFFEF89F0A4FCE5F0CE89D3
:10087000F0A42EFFE435F0CD89F0A42DFEE435F090
:100880008067EF4E7005BD80D780C3EF8BF0A4ACBE
:10089000F0EE8BF0A42CFCE435F0F8EF8AF0A42CF9
:1008A000E5F038FCE433CB8DF0A42CFCE5F03BF80C
:1008B000EE8AF0A42CFCE5F038F8E433CF89F0A4FC
:1008C0002CFCE5F038CF3400CE89F0A42FFFE5F002
:1008D0003EFEE433C98DF0A42EFEE5F039CD8AF05A
:1008E000A42FFFE5F03EFEE43DFD33D0E0FB5007D2
:1008F0000BBB000F0209BAEC2CFCEF33FFEE33FE0A
:06090000ED33FD02099237
:1009060075F020800E75F010800575F0087D007E6C
:10091600007F003392D530D503120A3AEC334010EB
:10092600EF33FFEE33FEED33FDEC33FCD5F0ED2275
:0E093600E5F0247EA2D513CC92E7CDCEFF22B1
:10094400EDD2E7CD33EC3392D524814006E4FFFEAB
:10095400FDFC22FCE4CFCECDCC24E0501174FF800A
:10096400EDC3CC13CCCD13CDCE13CECF13CF0470A7
:07097400F030D5DE020A3A63
:10097B00E9D2E7C933E833F892D5EDD2E7CD33ECC2
:07098B0033FC5002B2D5223B
:10099200EC30E7100FBF000C0EBE00080DBD0004C6
:1009A2000BEB6014A2D5EB13FCED92E7FD2274FF72
:1009B200FCFDFEFF22E480F8A2D574FF13FC7D80CB
:0309C200E480EFDF
:100AA900020DE3E493A3F8E493A34003F68001F273
:100AB90008DFF48029E493A3F85407240CC8C3334E
:100AC900C4540F4420C8834004F456800146F6DF1D
:100AD900E4800B0102040810204080900F27E47E77
:100AE900019360BCA3FF543F30E509541FFEE49312
:100AF900A360010ECF54C025E060A840B8E493A3D9
:100B0900FAE493A3F8E493A3C8C582C8CAC583CA03
:100B1900F0A3C8C582C8CAC583CADFE9DEE780BEBB
:010F2F0000C1
:1009C500BB010CE58229F582E5833AF583E02250E7
:1009D50006E92582F8E622BBFE06E92582F8E22231
:0D09E500E58229F582E5833AF583E493224B
:1009F200EF8DF0A4A8F0CF8CF0A428CE8DF0A42E19
:020A0200FE22D2
:100A0400C2D5EC30E709B2D5E4C39DFDE49CFCEE0D
:100A140030E715B2D5E4C39FFFE49EFE120A48C333
:100A2400E49DFDE49CFC8003120A4830D507C3E42E
:060A34009FFFE49EFE227C
:0E0A3A00C3E49FFFE49EFEE49DFDE49CFC22CD
:100A4800BC000BBE0029EF8DF084FFADF022E4CC92
:100A5800F875F008EF2FFFEE33FEEC33FCEE9DEC5B
:100A6800984005FCEE9DFE0FD5F0E9E4CEFD22EDA1
:100A7800F8F5F0EE8420D21CFEADF075F008EF2FEB
:100A8800FFED33FD4007985006D5F0F222C398FDDC
:050A98000FD5F0EA2279
:00000001FF
