:03000000020A9D54
:0C0A9D00787FE4F6D8FD758120020AE4A1
:100CE6005175616C206F20696E74657276616C6FE8
:100CF600007061726120746F6D6172206167756149
:100D06003F00486F7261206461206167756121212F
:100D16002100546F6D6520737561206167756121CF
:030D260021210088
:080EF400020A00C8C100C1019F
:100E9400758901758A65758CFCD28C308DFDC28C88
:030EA400C28D22DA
:040E0A007F0A7E00DD
:100E0E00E4FDFCC3ED9FEE6480F8EC648098500A1C
:0A0E1E00120E940DBD00010C80E9D6
:010E280022A7
:0C0ED600758901758BFC758D4BD28E2246
:050F0900C28EC28F2220
:100B29007C00AF03AE02120A047C007D0A120A049B
:040B3900AE04AF0552
:100B3D00EE7069EFB40A005063900B4DF8282873DE
:100B4D00020B6B020B6F020B75020B7B020B840207
:100B5D000B88020B8E020B94020B9D020BA1C2900F
:100B6D008002D290C291800AC290D2918004D2901C
:100B7D00D291C292C29322C2908002D290C2918031
:100B8D000AC290D2918004D290D291D292C2932275
:0D0B9D00C2908002D290C291C292D29322E7
:100D2900AB07AA06120B32C297120E0AD2977D0A96
:100D3900120B29C296120E0AD2967D64120B29C291
:100D490095120E0AD295AE02AF037C037DE8120B11
:090D59002FC294120E0AD294225A
:060E29007A007C007E004F
:100E2F0030800122308105AE04AF0522308205AE3D
:090E3F0002AF03227E007F632252
:100BAA0075120075131EC2B6C2B77B037D027F01A0
:100BBA00120E29EF64634E600122AF13AE12120EB9
:100BCA000ED2B6C2B77B067D057F04120E29EF64EA
:100BDA00634E600122AF13AE12120E0EC2B6D2B726
:100BEA007B097A007D087C007F077E00120E2FEFBA
:100BFA0064634E600122AF13AE12120E0ED2B6D249
:100C0A00B77BF67AFFE4FDFC7FFB7EFF120E2FEF27
:0D0C1A0064634E600122AF13AE12120E0E85
:030C2700020BAA13
:100E7C0075A038120EA775A006120EA775A00E123B
:080E8C000EA775A001020EA7DC
:060EFD00E4F5A0020EA7BF
:060F030075A0C0020EA75C
:060D62008B128A138914B4
:100D6800E4F515C3E515941074809480501AAB12FD
:100D7800AA13A9148515827583001209C56009F59F
:080D8800A0120EB7051580DB77
:010D90002240
:100EA700C2B0D2B17F017E00120E0EC2B1020E0E89
:100EB700D2B0D2B17F057E00120E0EC2B1020E0E65
:030F1D00020E7C45
:100E4800120F1D120EFD7BFF7A0C79E6120D62124D
:0B0E58000F037BFF7A0C79F7020D629C
:0F0EC700120F1D120EFD7BFF7A0D7908020D62CE
:100E6300120F1D120EFD7BFF7A0D7918120D627F92
:090E7300D07E07120E0E020F1DC5
:050F0E00C287C286222B
:100C8A008E108F11C286D2877C007D07120A048ECD
:100C9A00108F11E4F50CF50DAF0DAE0C120B3DAC37
:100CAA0010AD11EC12090BE4FBFAF9783F120800B7
:100CBA00120944120E0E050DE50D7002050CD394AF
:100CCA000AE50C6480948040CFD286E51125E0FFC6
:0C0CDA00E51033FE120E0EC286C2872207
:100DBB00120EE2AF0FAE0E120D29200006E50F4505
:100DCB000E7009C200120D91D2AA80E73001E4C265
:080DDB0001120C2AD2A880DBF2
:090EE200120E7C120EEB020C2A28
:090EEB00D2AFD2ABD2A8D2AA22E8
:100C2A00E4F510F511120F09F50AF50B120E48AE8C
:100C3A000AAF0B7C007D0A1209F28E0A8F0BE511AE
:100C4A00250BF50BE510350AF50A120BAA8E108F43
:100C5A00117FC87E00120E0EC3E510648094805086
:100C6A00CEC3E50B9405E50A648094805006750AA4
:100C7A0000750B05120F1D850A0E850B0F020ED685
:100D9100120EC7C2AFD297D296D295D294120F0932
:100DA100E4F508F509850A0E850B0F7F64FE120C28
:0A0DB1008A120E63120ED6D2AF2292
:03000300020F13D6
:050F1300D201C2A8326A
:03001300020F18C1
:050F1800D200C2AA3264
:03001B00020DE3F0
:100DE300C0E0120F090509E5097002050864C8454A
:100DF30008700EE50F150F7002150E7508007509C2
:070E030000120ED6D0E03210
:10080000EC4D6011E8497017ED33EC3304600DE4F2
:10081000FCFFFEFD22E933E8330470F80209B01250
:10082000097B58046009E4CC248150062850090251
:1008300009BA2840030209B7C0E0EB4A7044B98006
:1008400006D0E0FB0209A6EF4E701CBD8008EBFF4E
:10085000EAFEE9FD80EBE98DF0A4FEE5F00208E98F
:10086000E9CDF9EAFEEBFFEF89F0A4FCE5F0CE89D3
:10087000F0A42EFFE435F0CD89F0A42DFEE435F090
:100880008067EF4E7005BD80D780C3EF8BF0A4ACBE
:10089000F0EE8BF0A42CFCE435F0F8EF8AF0A42CF9
:1008A000E5F038FCE433CB8DF0A42CFCE5F03BF80C
:1008B000EE8AF0A42CFCE5F038F8E433CF89F0A4FC
:1008C0002CFCE5F038CF3400CE89F0A42FFFE5F002
:1008D0003EFEE433C98DF0A42EFEE5F039CD8AF05A
:1008E000A42FFFE5F03EFEE43DFD33D0E0FB5007D2
:1008F0000BBB000F0209BAEC2CFCEF33FFEE33FE0A
:06090000ED33FD02099237
:1009060075F020800E75F010800575F0087D007E6C
:10091600007F003392D530D503120A3AEC334010EB
:10092600EF33FFEE33FEED33FDEC33FCD5F0ED2275
:0E093600E5F0247EA2D513CC92E7CDCEFF22B1
:10094400EDD2E7CD33EC3392D524814006E4FFFEAB
:10095400FDFC22FCE4CFCECDCC24E0501174FF800A
:10096400EDC3CC13CCCD13CDCE13CECF13CF0470A7
:07097400F030D5DE020A3A63
:10097B00E9D2E7C933E833F892D5EDD2E7CD33ECC2
:07098B0033FC5002B2D5223B
:10099200EC30E7100FBF000C0EBE00080DBD0004C6
:1009A2000BEB6014A2D5EB13FCED92E7FD2274FF72
:1009B200FCFDFEFF22E480F8A2D574FF13FC7D80CB
:0309C200E480EFDF
:100AA900020DBBE493A3F8E493A34003F68001F29B
:100AB90008DFF48029E493A3F85407240CC8C3334E
:100AC900C4540F4420C8834004F456800146F6DF1D
:100AD900E4800B0102040810204080900EF4E47EAB
:100AE900019360BCA3FF543F30E509541FFEE49312
:100AF900A360010ECF54C025E060A840B8E493A3D9
:100B0900FAE493A3F8E493A3C8C582C8CAC583CA03
:100B1900F0A3C8C582C8CAC583CADFE9DEE780BEBB
:010EFC0000F5
:1009C500BB010CE58229F582E5833AF583E02250E7
:1009D50006E92582F8E622BBFE06E92582F8E22231
:0D09E500E58229F582E5833AF583E493224B
:1009F200EF8DF0A4A8F0CF8CF0A428CE8DF0A42E19
:020A0200FE22D2
:100A0400C2D5EC30E709B2D5E4C39DFDE49CFCEE0D
:100A140030E715B2D5E4C39FFFE49EFE120A48C333
:100A2400E49DFDE49CFC8003120A4830D507C3E42E
:060A34009FFFE49EFE227C
:0E0A3A00C3E49FFFE49EFEE49DFDE49CFC22CD
:100A4800BC000BBE0029EF8DF084FFADF022E4CC92
:100A5800F875F008EF2FFFEE33FEEC33FCEE9DEC5B
:100A6800984005FCEE9DFE0FD5F0E9E4CEFD22EDA1
:100A7800F8F5F0EE8420D21CFEADF075F008EF2FEB
:100A8800FFED33FD4007985006D5F0F222C398FDDC
:050A98000FD5F0EA2279
:00000001FF
