:03000000020A9D54
:0C0A9D00787FE4F6D8FD75811F020AE4A2
:100CDE005175616C206F20696E74657276616C6FF0
:100CEE00007061726120746F6D6172206167756151
:100CFE003F00486F72612064612061677561212138
:100D0E002100546F6D6520737561206167756121D7
:030D1E0021210090
:040F4700021800C8C4
:100EE800758901758A65758CFCD28C308DFDC28C34
:030EF800C28D2286
:040E2E007F0A7E00B9
:100E3200E4FDFCC3ED9FEE6480F8EC648098500AF8
:0A0E4200120EE80DBD00010C80E95E
:010E4C002283
:0C0F2A00758901758BFC758D4BD28E22F1
:050F4200C28EC28F22E7
:100B29007C00AF03AE02120A047C007D0A120A049B
:040B3900AE04AF0552
:100B3D00EE7069EFB40A005063900B4DF8282873DE
:100B4D00020B6B020B6F020B75020B7B020B840207
:100B5D000B88020B8E020B94020B9D020BA1C2900F
:100B6D008002D290C291800AC290D2918004D2901C
:100B7D00D291C292C29322C2908002D290C2918031
:100B8D000AC290D2918004D290D291D292C2932275
:0D0B9D00C2908002D290C291C292D29322E7
:100D9D00AB07AA06120B32C297120E2ED2977D0AFE
:100DAD00120B29C296120E2ED2967D64120B29C2F9
:100DBD0095120E2ED295AE02AF037C037DE8120B79
:090DCD002FC294120E2ED29422C2
:060E4D007A007C007E002B
:100E530030800122308105AE04AF0522308205AE19
:090E630002AF03227E007F63222E
:100BAA00751000751132C2B6C2B77B037D027F0190
:100BBA00120E4DEF64634E600122AF11AE10120E99
:100BCA0032D2B6C2B77B067D057F04120E4DEF64A2
:100BDA00634E600122AF11AE10120E32C2B6D2B706
:100BEA007B097A007D087C007F077E00120E53EF96
:100BFA0064634E600122AF11AE10120E32D2B6D229
:100C0A00B77BF67AFFE4FDFC7FFB7EFF120E53EF03
:0D0C1A0064634E600122AF11AE10120E3265
:030C2700020BAA13
:100EA00075A038120EFB75A006120EFB75A00E126F
:080EB0000EFB75A001020EFB10
:060F3600E4F5A0020EFB31
:060F3C0075A0C0020EFBCF
:060DD6008B148A1589163A
:100DDC00E4F517C3E517941074809480501AAB1483
:100DEC00AA15A9168517827583001209C56009F525
:080DFC00A0120F0B051780DBAC
:010E040022CB
:100EFB00C2B0D2B17F017E00120E32C2B1020E32ED
:100F0B00D2B0D2B17F057E00120E32C2B1020E32C8
:030F4C00020EA0F2
:100E6C00120F4C120F367BFF7A0C79DE120DD61254
:0B0E7C000F3C7BFF7A0C79EF020DD6D3
:0F0F1B00120F4C120F367BFF7A0D7900020DD6A4
:100E8700120F4C120F367BFF7A0D7910120DD67F99
:090E9700D07E07120E32020F4C4E
:100C8D008E148F15C286D287E4F51EF51FAF1FAEE9
:100C9D001E120B3DAC14AD15EC12090BE4FBFAF969
:100CAD00783F120800120944120E32051FE51F701D
:100CBD0002051ED3940AE51E6480948040CFD2862F
:100CCD00E51525E0FFE51433FE120E32C286C2870C
:010CDD0022F4
:100EB800120EA0120ED0AF1DAE1C120D9DE51D45E1
:080EC8001C70F3120C2A80EEED
:03000300020D6289
:100D6200C0E0C0F0C083C082C0D075D000C000C057
:100D720001C002C003C004C005C006C007120ED0E5
:100D8200D007D006D005D004D003D002D001D000C5
:0B0D9200D0D0D082D083D0F0D0E0326F
:100ED000120D21D2AFD2ABD2A8D2AAC286C28785C8
:080EE000181C85191D020F2AE0
:100D2100E4F50EF50FF518F519120E6CAE18AF19A2
:100D31007C007D0A1209F28E188F19E50F2519F52D
:100D410019E50E3518F518120BAA8E0E8F0F7F2C90
:100D51007E01120E32C3E50E6480948050CE020FE4
:010D61004C45
:03001B00020E05CD
:100E0500C0E0120F42051BE51B7002051AE51B64C5
:100E1500C8451A700EE51D151D7002151C751A00C2
:090E2500751B00120F2AD0E03207
:03001300020C2AB2
:100C2A00C0E0C0F0C083C082C0D075D000C000C090
:100C3A0001C002C003C004C005C006C007120F1BD2
:100C4A00C2AFD297D296D295D294120F42751A0099
:100C5A00751B0085181C85191D7FF47E01120C8DE9
:100C6A00D2AF120F2A120E87D007D006D005D004B1
:100C7A00D003D002D001D000D0D0D082D083D0F01F
:030C8A00D0E03285
:10080000EC4D6011E8497017ED33EC3304600DE4F2
:10081000FCFFFEFD22E933E8330470F80209B01250
:10082000097B58046009E4CC248150062850090251
:1008300009BA2840030209B7C0E0EB4A7044B98006
:1008400006D0E0FB0209A6EF4E701CBD8008EBFF4E
:10085000EAFEE9FD80EBE98DF0A4FEE5F00208E98F
:10086000E9CDF9EAFEEBFFEF89F0A4FCE5F0CE89D3
:10087000F0A42EFFE435F0CD89F0A42DFEE435F090
:100880008067EF4E7005BD80D780C3EF8BF0A4ACBE
:10089000F0EE8BF0A42CFCE435F0F8EF8AF0A42CF9
:1008A000E5F038FCE433CB8DF0A42CFCE5F03BF80C
:1008B000EE8AF0A42CFCE5F038F8E433CF89F0A4FC
:1008C0002CFCE5F038CF3400CE89F0A42FFFE5F002
:1008D0003EFEE433C98DF0A42EFEE5F039CD8AF05A
:1008E000A42FFFE5F03EFEE43DFD33D0E0FB5007D2
:1008F0000BBB000F0209BAEC2CFCEF33FFEE33FE0A
:06090000ED33FD02099237
:1009060075F020800E75F010800575F0087D007E6C
:10091600007F003392D530D503120A3AEC334010EB
:10092600EF33FFEE33FEED33FDEC33FCD5F0ED2275
:0E093600E5F0247EA2D513CC92E7CDCEFF22B1
:10094400EDD2E7CD33EC3392D524814006E4FFFEAB
:10095400FDFC22FCE4CFCECDCC24E0501174FF800A
:10096400EDC3CC13CCCD13CDCE13CECF13CF0470A7
:07097400F030D5DE020A3A63
:10097B00E9D2E7C933E833F892D5EDD2E7CD33ECC2
:07098B0033FC5002B2D5223B
:10099200EC30E7100FBF000C0EBE00080DBD0004C6
:1009A2000BEB6014A2D5EB13FCED92E7FD2274FF72
:1009B200FCFDFEFF22E480F8A2D574FF13FC7D80CB
:0309C200E480EFDF
:100AA900020EB8E493A3F8E493A34003F68001F29D
:100AB90008DFF48029E493A3F85407240CC8C3334E
:100AC900C4540F4420C8834004F456800146F6DF1D
:100AD900E4800B0102040810204080900F47E47E57
:100AE900019360BCA3FF543F30E509541FFEE49312
:100AF900A360010ECF54C025E060A840B8E493A3D9
:100B0900FAE493A3F8E493A3C8C582C8CAC583CA03
:100B1900F0A3C8C582C8CAC583CADFE9DEE780BEBB
:010F4B0000A5
:1009C500BB010CE58229F582E5833AF583E02250E7
:1009D50006E92582F8E622BBFE06E92582F8E22231
:0D09E500E58229F582E5833AF583E493224B
:1009F200EF8DF0A4A8F0CF8CF0A428CE8DF0A42E19
:020A0200FE22D2
:100A0400C2D5EC30E709B2D5E4C39DFDE49CFCEE0D
:100A140030E715B2D5E4C39FFFE49EFE120A48C333
:100A2400E49DFDE49CFC8003120A4830D507C3E42E
:060A34009FFFE49EFE227C
:0E0A3A00C3E49FFFE49EFEE49DFDE49CFC22CD
:100A4800BC000BBE0029EF8DF084FFADF022E4CC92
:100A5800F875F008EF2FFFEE33FEEC33FCEE9DEC5B
:100A6800984005FCEE9DFE0FD5F0E9E4CEFD22EDA1
:100A7800F8F5F0EE8420D21CFEADF075F008EF2FEB
:100A8800FFED33FD4007985006D5F0F222C398FDDC
:050A98000FD5F0EA2279
:00000001FF
