:03000000020A9D54
:0C0A9D00787FE4F6D8FD75811B020AE4A6
:100D76005175616C206F20696E74657276616C6F57
:100D8600007061726120746F6D61722061677561B8
:100D96003F00486F7261206461206167756121219F
:100DA6002100546F6D65207375612061677561213F
:030DB600212100F8
:080F3800021400C8021A0000B7
:100EEA00758901758A65758CFCD28C308DFDC28C32
:030EFA00C28D2284
:040E48007F0A7E009F
:100E4C00E4FDFCC3ED9FEE6480F8EC648098500ADE
:0A0E5C00120EEA0DBD00010C80E942
:010E66002269
:0C0F2C00758901758BFC758D4BD28E22EF
:050F4D00C28EC28F22DC
:100B29007C00AF03AE02120A047C007D0A120A049B
:040B3900AE04AF0552
:100B3D00EE7069EFB40A005063900B4DF8282873DE
:100B4D00020B6B020B6F020B75020B7B020B840207
:100B5D000B88020B8E020B94020B9D020BA1C2900F
:100B6D008002D290C291800AC290D2918004D2901C
:100B7D00D291C292C29322C2908002D290C2918031
:100B8D000AC290D2918004D290D291D292C2932275
:0D0B9D00C2908002D290C291C292D29322E7
:100DB900AB07AA06120B32C297120E48D2977D0AC8
:100DC900120B29C296120E48D2967D64120B29C2C3
:100DD90095120E48D295AE02AF037C037DE8120B43
:090DE9002FC294120E48D294228C
:060E67007A007C007E0011
:100E6D0030800122308105AE04AF0522308205AEFF
:090E7D0002AF03227E007F632214
:100BAA00750C00750D32C2B6C2B77B037D027F0198
:100BBA00120E67EF64634E600122AF0DAE0C120E87
:100BCA004CD2B6C2B77B067D057F04120E67EF646E
:100BDA00634E600122AF0DAE0C120E4CC2B6D2B7F4
:100BEA007B097A007D087C007F077E00120E6DEF7C
:100BFA0064634E600122AF0DAE0C120E4CD2B6D217
:100C0A00B77BF67AFFE4FDFC7FFB7EFF120E6DEFE9
:0D0C1A0064634E600122AF0DAE0C120E4C53
:030C2700020BAA13
:100EBA0075A038120EFD75A006120EFD75A00E1251
:080ECA000EFD75A001020EFDF2
:060F4100E4F5A0020EFD24
:060F470075A0C0020EFDC2
:060DF2008B108A1189122A
:100DF800E4F513C3E513941074809480501AAB1073
:100E0800AA11A9128513827583001209C56009F514
:080E1800A0120F0D051380DB91
:010E200022AF
:100EFD00C2B0D2B17F017E00120E4CC2B1020E4CB7
:100F0D00D2B0D2B17F057E00120E4CC2B1020E4C92
:030F5200020EBAD2
:100E8600120F52120F417BFF7A0D7976120DF21274
:0B0E96000F477BFF7A0D7987020DF2F9
:0F0F1D00120F52120F417BFF7A0D7998020DF2DD
:100EA100120F52120F417BFF7A0D79A8120DF27FBA
:090EB100D07E07120E4C020F5214
:100ED200120EBA120CDEAF19AE18120DB9E5194591
:080EE2001870F3120C2A80EED7
:100C8D008E108F11C286D287E4F51AF51BAF1BAEFD
:100C9D001A120B3DAC10AD11EC12090BE4FBFAF975
:100CAD00783F120800120944120E4C051BE51B700B
:100CBD0002051AD3940AE51A6480948040CFD28637
:100CCD00E51125E0FFE51033FE120E4CC286C287FA
:010CDD0022F4
:03000300020CDE0E
:100CDE00C0E0C0F0C083C082C0D075D000C000C0DC
:100CEE0001C002C003C004C005C006C007C286C250
:100CFE0087120D2ED2AFD2ABD2A8D2AA85141885E8
:100D0E001519120F2CD007D006D005D004D003D061
:100D1E0002D001D000D0D0D082D083D0F0D0E0323B
:100D2E00E4F50AF50B120E86AE0AAF0B7C007D0AB7
:100D3E001209F28E0A8F0BE509250BF50BE5083526
:100D4E000AF50A120BAA8E088F097F2C7E01120E4D
:100D5E004CC3E5086480948050CE850A14850B152B
:070D6E00120F52AE0AAF0B99
:010D7500225B
:03001300020C2AB2
:100C2A00C0E0C0F0C083C082C0D075D000C000C090
:100C3A0001C002C003C004C005C006C007120F1DD0
:100C4A00C2AFD297D296D295D294120F4D75160092
:100C5A007517008514188515197FF47E01120C8DFD
:100C6A00D2AF120F2C120EA1D007D006D005D00495
:100C7A00D003D002D001D000D0D0D082D083D0F01F
:030C8A00D0E03285
:03001B00020E21B1
:100E2100C0E0120F4D0517E5177002051664C8459D
:100E310016700EE51915197002151875160075173B
:070E410000120F2CD0E0327B
:10080000EC4D6011E8497017ED33EC3304600DE4F2
:10081000FCFFFEFD22E933E8330470F80209B01250
:10082000097B58046009E4CC248150062850090251
:1008300009BA2840030209B7C0E0EB4A7044B98006
:1008400006D0E0FB0209A6EF4E701CBD8008EBFF4E
:10085000EAFEE9FD80EBE98DF0A4FEE5F00208E98F
:10086000E9CDF9EAFEEBFFEF89F0A4FCE5F0CE89D3
:10087000F0A42EFFE435F0CD89F0A42DFEE435F090
:100880008067EF4E7005BD80D780C3EF8BF0A4ACBE
:10089000F0EE8BF0A42CFCE435F0F8EF8AF0A42CF9
:1008A000E5F038FCE433CB8DF0A42CFCE5F03BF80C
:1008B000EE8AF0A42CFCE5F038F8E433CF89F0A4FC
:1008C0002CFCE5F038CF3400CE89F0A42FFFE5F002
:1008D0003EFEE433C98DF0A42EFEE5F039CD8AF05A
:1008E000A42FFFE5F03EFEE43DFD33D0E0FB5007D2
:1008F0000BBB000F0209BAEC2CFCEF33FFEE33FE0A
:06090000ED33FD02099237
:1009060075F020800E75F010800575F0087D007E6C
:10091600007F003392D530D503120A3AEC334010EB
:10092600EF33FFEE33FEED33FDEC33FCD5F0ED2275
:0E093600E5F0247EA2D513CC92E7CDCEFF22B1
:10094400EDD2E7CD33EC3392D524814006E4FFFEAB
:10095400FDFC22FCE4CFCECDCC24E0501174FF800A
:10096400EDC3CC13CCCD13CDCE13CECF13CF0470A7
:07097400F030D5DE020A3A63
:10097B00E9D2E7C933E833F892D5EDD2E7CD33ECC2
:07098B0033FC5002B2D5223B
:10099200EC30E7100FBF000C0EBE00080DBD0004C6
:1009A2000BEB6014A2D5EB13FCED92E7FD2274FF72
:1009B200FCFDFEFF22E480F8A2D574FF13FC7D80CB
:0309C200E480EFDF
:100AA900020ED2E493A3F8E493A34003F68001F283
:100AB90008DFF48029E493A3F85407240CC8C3334E
:100AC900C4540F4420C8834004F456800146F6DF1D
:100AD900E4800B0102040810204080900F38E47E66
:100AE900019360BCA3FF543F30E509541FFEE49312
:100AF900A360010ECF54C025E060A840B8E493A3D9
:100B0900FAE493A3F8E493A3C8C582C8CAC583CA03
:100B1900F0A3C8C582C8CAC583CADFE9DEE780BEBB
:010F400000B0
:1009C500BB010CE58229F582E5833AF583E02250E7
:1009D50006E92582F8E622BBFE06E92582F8E22231
:0D09E500E58229F582E5833AF583E493224B
:1009F200EF8DF0A4A8F0CF8CF0A428CE8DF0A42E19
:020A0200FE22D2
:100A0400C2D5EC30E709B2D5E4C39DFDE49CFCEE0D
:100A140030E715B2D5E4C39FFFE49EFE120A48C333
:100A2400E49DFDE49CFC8003120A4830D507C3E42E
:060A34009FFFE49EFE227C
:0E0A3A00C3E49FFFE49EFEE49DFDE49CFC22CD
:100A4800BC000BBE0029EF8DF084FFADF022E4CC92
:100A5800F875F008EF2FFFEE33FEEC33FCEE9DEC5B
:100A6800984005FCEE9DFE0FD5F0E9E4CEFD22EDA1
:100A7800F8F5F0EE8420D21CFEADF075F008EF2FEB
:100A8800FFED33FD4007985006D5F0F222C398FDDC
:050A98000FD5F0EA2279
:00000001FF
