:03000000020A7081
:0C0A7000787FE4F6D8FD758115020AB706
:080DAB00020800C8020E00005E
:100D8C00758901758A65758CFCD28C308DFDC28C91
:030D9C00C28D22E3
:040D40007F417E0071
:100D4400E4FDFCC3ED9FEE6480F8EC648098500AE7
:0A0D5400120D8C0DBD00010C80E9AA
:010D5E002272
:0C0D9F00758901758BFC758D4BD28E227E
:050DB400C28EC28F2277
:100D7700120D5FAF0DAE0C120C9AE50D450C70F31A
:050D8700120BF780EEE5
:100C49008E148F15C2B1D2B0E4F50EF50FAF0FAE09
:100C59000E120B10AC14AD15EC12090BE4FBFAF9EA
:100C6900783F120800120944120D44050FE50F7070
:100C790002050ED3940AE50E6480948040CFD2B168
:100C8900E51525E0FFE51433FE120D44C2B1C2B0EB
:010C99002238
:100D5F00120CE3C2B1C2B0D2AFD2ABD2A8D2AA8525
:080D6F00080C85090D020D9F1F
:100CE300AE12AF137C007D0A1209C58E128F13E575
:100CF300112513F513E5103512F512120B7D8E1025
:100D03008F11C3E5106480948050D5750800750970
:050D130007AE12AF1352
:010D180022B8
:100B7D00C280C2812082057E007F01222083057EF6
:100B8D00007F02222084057E007F0322120D40D2B9
:100B9D0080C2812082037F04222083057E007F0591
:100BAD00222084057E007F0622120D40C280D28154
:100BBD002082037F07222083057E007F0822208468
:100BCD00057E007F0922120D40D280D28120820540
:100BDD007EFF7FFF22208304E4FEFF222084057E1A
:0A0BED00FF7FFE22120D40020B7D77
:03001300020BF7E6
:100BF700C0E0C0F0C083C082C0D075D000C000C0C4
:100C070001C002C003C004C005C006C007C2AF755B
:100C17000A00750B0085080C85090D7FF47E01120B
:100C27000C49D2AF120D9FD007D006D005D004D003
:100C370003D002D001D000D0D0D082D083D0F0D062
:020C4700E03299
:100C9A008E108F11120B05C2977F0A7E00120D4427
:100CAA00D2977D0A120AFCC2967F0A7E00120D4470
:100CBA00D2967D64120AFCC2957F0A7E00120D4408
:100CCA00D295AE10AF117C037DE8120B02C2947F5D
:090CDA000A7E00120D44D294229E
:03001B00020D19BA
:100D1900C0E0120DB4050BE50B7002050A64C84565
:100D29000A700EE50D150D7002150C750A00750B8C
:070D390000120D9FD0E03213
:100AFC00AE10AF117C001209D77C007D0A1209D709
:040B0C00AE04AF057F
:100B1000EE7069EFB40A005063900B20F828287338
:100B2000020B3E020B42020B48020B4E020B570215
:100B30000B5B020B61020B67020B70020B74C2901D
:100B40008002D290C291800AC290D2918004D29049
:100B5000D291C292C29322C2908002D290C291805E
:100B60000AC290D2918004D290D291D292C29322A2
:0D0B7000C2908002D290C291C292D2932214
:10080000EC4D6011E8497017ED33EC3304600DE4F2
:10081000FCFFFEFD22E933E8330470F80209B01250
:10082000097B58046009E4CC248150062850090251
:1008300009BA2840030209B7C0E0EB4A7044B98006
:1008400006D0E0FB0209A6EF4E701CBD8008EBFF4E
:10085000EAFEE9FD80EBE98DF0A4FEE5F00208E98F
:10086000E9CDF9EAFEEBFFEF89F0A4FCE5F0CE89D3
:10087000F0A42EFFE435F0CD89F0A42DFEE435F090
:100880008067EF4E7005BD80D780C3EF8BF0A4ACBE
:10089000F0EE8BF0A42CFCE435F0F8EF8AF0A42CF9
:1008A000E5F038FCE433CB8DF0A42CFCE5F03BF80C
:1008B000EE8AF0A42CFCE5F038F8E433CF89F0A4FC
:1008C0002CFCE5F038CF3400CE89F0A42FFFE5F002
:1008D0003EFEE433C98DF0A42EFEE5F039CD8AF05A
:1008E000A42FFFE5F03EFEE43DFD33D0E0FB5007D2
:1008F0000BBB000F0209BAEC2CFCEF33FFEE33FE0A
:06090000ED33FD02099237
:1009060075F020800E75F010800575F0087D007E6C
:10091600007F003392D530D503120A0DEC33401018
:10092600EF33FFEE33FEED33FDEC33FCD5F0ED2275
:0E093600E5F0247EA2D513CC92E7CDCEFF22B1
:10094400EDD2E7CD33EC3392D524814006E4FFFEAB
:10095400FDFC22FCE4CFCECDCC24E0501174FF800A
:10096400EDC3CC13CCCD13CDCE13CECF13CF0470A7
:07097400F030D5DE020A0D90
:10097B00E9D2E7C933E833F892D5EDD2E7CD33ECC2
:07098B0033FC5002B2D5223B
:10099200EC30E7100FBF000C0EBE00080DBD0004C6
:1009A2000BEB6014A2D5EB13FCED92E7FD2274FF72
:1009B200FCFDFEFF22E480F8A2D574FF13FC7D80CB
:0309C200E480EFDF
:100A7C00020D77E493A3F8E493A34003F68001F20C
:100A8C0008DFF48029E493A3F85407240CC8C3337B
:100A9C00C4540F4420C8834004F456800146F6DF4A
:100AAC00E4800B0102040810204080900DABE47E22
:100ABC00019360BCA3FF543F30E509541FFEE4933F
:100ACC00A360010ECF54C025E060A840B8E493A306
:100ADC00FAE493A3F8E493A3C8C582C8CAC583CA31
:100AEC00F0A3C8C582C8CAC583CADFE9DEE780BEE9
:010DB300003F
:1009C500EF8DF0A4A8F0CF8CF0A428CE8DF0A42E46
:0209D500FE2200
:1009D700C2D5EC30E709B2D5E4C39DFDE49CFCEE3B
:1009E70030E715B2D5E4C39FFFE49EFE120A1BC38E
:1009F700E49DFDE49CFC8003120A1B30D507C3E489
:060A07009FFFE49EFE22A9
:0E0A0D00C3E49FFFE49EFEE49DFDE49CFC22FA
:100A1B00BC000BBE0029EF8DF084FFADF022E4CCBF
:100A2B00F875F008EF2FFFEE33FEEC33FCEE9DEC88
:100A3B00984005FCEE9DFE0FD5F0E9E4CEFD22EDCE
:100A4B00F8F5F0EE8420D21CFEADF075F008EF2F18
:100A5B00FFED33FD4007985006D5F0F222C398FD09
:050A6B000FD5F0EA22A6
:00000001FF
