:03000000020800F3
:0C080000787FE4F6D8FD758111020847EE
:080AD600020C00FB020A012CD6
:100AB700758901758A65758CFCD28C308DFDC28C69
:030AC700C28D22BB
:040A82007F0A7E0069
:100A8600E4FDFCC3ED9FEE6480F8EC648098500AA8
:0A0A9600120AB70DBD00010C80E943
:010AA0002233
:0C0ACA00758901758BFC758D4BD28E2256
:050ADF00C28EC28F224F
:020A6200D2A21E
:100A64001209988E0E8F0F7F647E00120A86AF0FD4
:0C0A7400AE0E120A027F647E00120A8699
:020A800080E212
:10099800C280C281208207D2827E007F012220830A
:1009A80007D2837E007F02222084057E007F0322F7
:1009B800D280C2812082057E007F04222083057EAA
:1009C800007F05222084057E007F0622C280D28116
:1009D8002082057E007F07222083057E007F082273
:1009E8002084057E007F0922D280D2812082028065
:0A09F800052083028000E4FEFF22C8
:100AA100C286D2877FE87E03120A86D286C2877FFA
:060AB1000A7E00020A8625
:100A02008E108F11120920C297120A82D2977D0A84
:100A1200120917C296120A82D2967D64120917C26F
:100A220095120A82D295AE10AF117C037DE81209AD
:090A32001DC294120A82D2942222
:03001B00020A3B9B
:100A3B00C0E0120ADF0509E5097002050864C84524
:100A4B0008700EE50B150B7002150A750800750979
:070A5B0000120ACAD0E032CC
:10091700AE10AF117C0012088C7C007D0A12088C87
:04092700AE04AF0566
:10092B00EE7069EFB40A00506390093BF828287306
:10093B0002095902095D020963020969020972027F
:10094B00097602097C02098202098B02098FC29087
:10095B008002D290C291800AC290D2918004D29030
:10096B00D291C292C29322C2908002D290C2918045
:10097B000AC290D2918004D290D291D292C2932289
:0D098B00C2908002D290C291C292D29322FB
:10080C00020A62E493A3F8E493A34003F68001F296
:10081C0008DFF48029E493A3F85407240CC8C333ED
:10082C00C4540F4420C8834004F456800146F6DFBC
:10083C00E4800B0102040810204080900AD6E47E6C
:10084C00019360BCA3FF543F30E509541FFEE493B1
:10085C00A360010ECF54C025E060A840B8E493A378
:10086C00FAE493A3F8E493A3C8C582C8CAC583CAA3
:10087C00F0A3C8C582C8CAC583CADFE9DEE780BE5B
:010ADE000017
:10088C00C2D5EC30E709B2D5E4C39DFDE49CFCEE87
:10089C0030E715B2D5E4C39FFFE49EFE1208C2C335
:1008AC00E49DFDE49CFC80031208C230D507C3E430
:0608BC009FFFE49EFE22F6
:1008C200BC000BBE0029EF8DF084FFADF022E4CC1A
:1008D200F875F008EF2FFFEE33FEEC33FCEE9DECE3
:1008E200984005FCEE9DFE0FD5F0E9E4CEFD22ED29
:1008F200F8F5F0EE8420D21CFEADF075F008EF2F73
:10090200FFED33FD4007985006D5F0F222C398FD63
:050912000FD5F0EA2200
:00000001FF
