:0300000002098171
:0C098100787FE4F6D8FD7581250209C8D6
:100B53000002009F0025000D009900490041001F7D
:040B63000000001975
:080BAA00022200FB0220012CD5
:100A4E00AE24AF257C001208F67C007D0A1208F653
:040A5E00AE04AF052E
:040A62008E088F0962
:100A6600780A7C007D007BFF7A0B79537E007F1429
:0F0A76001208D0E50925E0240AF8E6FE08E6FF9D
:010A8500224E
:100B6700758901758A65758CFCD28C308DFDC28CB8
:030B7700C28D220A
:040B08007F0A7E00E2
:100B0C00E4FDFCC3ED9FEE6480F8EC648098500A21
:0A0B1C00120B670DBD00010C80E90B
:010B260022AC
:0C0B7A00758901758BFC758D4BD28E22A5
:050BB300C28EC28F227A
:050BB800D281D2802271
:050BBD00C281C280228C
:090B8600D281D280C281C280221A
:090B8F00C280C281D280D2812211
:090B9800C281D280C280D2812208
:090BA100D281D280C280D28122EF
:100A8600E4FEEEC39408748094805016EF54807090
:100A960004C2818002D281D280C280EF25E0FF0E9F
:0D0AA60080E0D281D280A281E433FFC280C3
:010AB3002220
:100AB400E4FFFEEEFD7C00C3940874809480501C17
:100AC400D280308103430701C3ED9407EC64809422
:0C0AD400805004EF25E0FFC2800E80D7A8
:010AE00022F3
:100B2700D2AFD2ABD2A8120B7A120BB8120BBD7F81
:060B370020120A8680F383
:100B3D00C280D2817FE87E03120B0CD280C2817FEE
:060B4D000A7E00020B0C01
:100A0D008E248F25120A578FA0D297120B08C297EA
:100A1D007D0A120A4E8FA0D296120B08C2967D64E3
:100A2D00120A4E8FA0D295120B08C295AE24AF2597
:100A3D007C037DE8120A548FA0D294120B08C29445
:010A4D002286
:03001B00020AE1F5
:100AE100C0E0120BB3051FE51F7002051E64C84567
:100AF1001E700EE521152170021520751E00751F4F
:070B010000120B7AD0E03274
:10098D00020B27E493A3F8E493A34003F68001F24E
:10099D0008DFF48029E493A3F85407240CC8C3336B
:1009AD00C4540F4420C8834004F456800146F6DF3A
:1009BD00E4800B0102040810204080900BAAE47E15
:1009CD00019360BCA3FF543F30E509541FFEE4932F
:1009DD00A360010ECF54C025E060A840B8E493A3F6
:1009ED00FAE493A3F8E493A3C8C582C8CAC583CA21
:1009FD00F0A3C8C582C8CAC583CADFE9DEE780BED9
:010BB2000042
:10080000E709F608DFFA8046E709F208DFFA803EDA
:1008100088828C83E709F0A3DFFA8032E309F608C7
:10082000DFFA8078E309F208DFFA807088828C832F
:10083000E309F0A3DFFA806489828A83E0A3F608E3
:10084000DFFA805889828A83E0A3F208DFFA804CBD
:1008500080D280FA80C680D4806980F28033801094
:1008600080A680EA809A80A880DA80E280CA8033FD
:1008700089828A83ECFAE493A3C8C582C8CCC58375
:10088000CCF0A3C8C582C8CCC583CCDFE9DEE78045
:100890000D89828A83E493A3F608DFF9ECFAA9F0C4
:1008A000EDFB2289828A83ECFAE0A3C8C582C8CC1A
:1008B000C583CCF0A3C8C582C8CCC583CCDFEADE33
:1008C000E880DB89828A83E493A3F208DFF980CC95
:1008D00088F0EF60010E4E60C388F0ED2402B4048E
:1008E0000050B9F582EB2402B4040050AF23234535
:0608F00082239008507302
:1008F600C2D5EC30E709B2D5E4C39DFDE49CFCEE1D
:1009060030E715B2D5E4C39FFFE49EFE12092CC35F
:10091600E49DFDE49CFC800312092C30D507C3E45A
:060926009FFFE49EFE228B
:10092C00BC000BBE0029EF8DF084FFADF022E4CCAF
:10093C00F875F008EF2FFFEE33FEEC33FCEE9DEC78
:10094C00984005FCEE9DFE0FD5F0E9E4CEFD22EDBE
:10095C00F8F5F0EE8420D21CFEADF075F008EF2F08
:10096C00FFED33FD4007985006D5F0F222C398FDF9
:05097C000FD5F0EA2296
:00000001FF
