:03000000020B0DE3
:0C0B0D00787FE4F6D8FD758117020B54C8
:080DBE00020800C8020E00004B
:100D9F00758901758A65758CFCD28C308DFDC28C7E
:030DAF00C28D22D0
:040D68007F0A7E0080
:100D6C00E4FDFCC3ED9FEE6480F8EC648098500ABF
:0A0D7C00120D9F0DBD00010C80E96F
:010D8600224A
:0C0DB200758901758BFC758D4BD28E226B
:050DCF00C28EC28F225C
:080DC700120D87120A7080FB77
:100C1A008E168F17C2B1D2B07C007D071209D78E0B
:100C2A00168F17E4F50EF50FAF0FAE0E120BADAC23
:100C3A0016AD17EC12090BE4FBFAF9783F1208001B
:100C4A00120944120D6C050FE50F7002050ED394BC
:100C5A000AE50E6480948040CFD2B1E51725E0FF03
:0C0C6A00E51633FE120D6CC2B1C2B022C0
:100D8700C2B1C2B0120CC8D2AFD2ABD2A8D2AA8518
:080D9700080C85090D020DB2E4
:100CC800AE12AF137C007D0A1209C58E128F13E590
:100CD800112513F513E5103512F512120A708E104E
:100CE8008F11120D087F2C7E01120D6CC3E5106464
:0F0CF80080948050CB750800750907AE12AF13BA
:010D070022C9
:100A7000751400751532C2A0D2A1D2A2D2A32080D3
:100A8000057E007F01222081057E007F02222082D8
:100A9000057E007F0322AF15AE14120D6CD2A0C2EA
:100AA000A1D2A2D2A32080057E007F04222081054E
:100AB0007E007F05222082057E007F0622AF15AED4
:100AC00014120D6CD2A0D2A1C2A2D2A32080057EA6
:100AD000007F07222081057E007F08222082057E7C
:100AE000007F0922AF15AE14120D6CD2A0D2A1D294
:100AF000A2C2A32080057EFF7FFB22208104E4FEAA
:0C0B0000FF22308203020A707EFF7FF6A5
:010B0C0022C6
:03001300020C7666
:100C7600C0E0C0F0C083C082C0D075D000C000C044
:100C860001C002C003C004C005C006C007C2AF75DC
:100C96000A00750B0085080C85090D7FF47E01128C
:100CA6000C1AD2AF120DB2D007D006D005D004D0A0
:100CB60003D002D001D000D0D0D082D083D0F0D0E3
:020CC600E0321A
:100D08008E148F15120BA2C297120D68D2977D0A06
:100D1800120B99C296120D68D2967D64120B99C275
:100D280095120D68D295AE14AF157C037DE8120BB1
:090D38009FC294120D68D29422AE
:03001B00020D4192
:100D4100C0E0120DCF050BE50B7002050A64C84522
:100D51000A700EE50D150D7002150C750A00750B64
:070D610000120DB2D0E032D8
:100B9900AE14AF157C001209D77C007D0A1209D763
:040BA900AE04AF05E2
:100BAD00EE7069EFB40A005063900BBDF8282873FE
:100BBD00020BDB020BDF020BE5020BEB020BF40267
:100BCD000BF8020BFE020C04020C0D020C11C2906C
:100BDD008002D290C291800AC290D2918004D290AC
:100BED00D291C292C29322C2908002D290C29180C1
:100BFD000AC290D2918004D290D291D292C2932205
:0D0C0D00C2908002D290C291C292D2932276
:10080000EC4D6011E8497017ED33EC3304600DE4F2
:10081000FCFFFEFD22E933E8330470F80209B01250
:10082000097B58046009E4CC248150062850090251
:1008300009BA2840030209B7C0E0EB4A7044B98006
:1008400006D0E0FB0209A6EF4E701CBD8008EBFF4E
:10085000EAFEE9FD80EBE98DF0A4FEE5F00208E98F
:10086000E9CDF9EAFEEBFFEF89F0A4FCE5F0CE89D3
:10087000F0A42EFFE435F0CD89F0A42DFEE435F090
:100880008067EF4E7005BD80D780C3EF8BF0A4ACBE
:10089000F0EE8BF0A42CFCE435F0F8EF8AF0A42CF9
:1008A000E5F038FCE433CB8DF0A42CFCE5F03BF80C
:1008B000EE8AF0A42CFCE5F038F8E433CF89F0A4FC
:1008C0002CFCE5F038CF3400CE89F0A42FFFE5F002
:1008D0003EFEE433C98DF0A42EFEE5F039CD8AF05A
:1008E000A42FFFE5F03EFEE43DFD33D0E0FB5007D2
:1008F0000BBB000F0209BAEC2CFCEF33FFEE33FE0A
:06090000ED33FD02099237
:1009060075F020800E75F010800575F0087D007E6C
:10091600007F003392D530D503120A0DEC33401018
:10092600EF33FFEE33FEED33FDEC33FCD5F0ED2275
:0E093600E5F0247EA2D513CC92E7CDCEFF22B1
:10094400EDD2E7CD33EC3392D524814006E4FFFEAB
:10095400FDFC22FCE4CFCECDCC24E0501174FF800A
:10096400EDC3CC13CCCD13CDCE13CECF13CF0470A7
:07097400F030D5DE020A0D90
:10097B00E9D2E7C933E833F892D5EDD2E7CD33ECC2
:07098B0033FC5002B2D5223B
:10099200EC30E7100FBF000C0EBE00080DBD0004C6
:1009A2000BEB6014A2D5EB13FCED92E7FD2274FF72
:1009B200FCFDFEFF22E480F8A2D574FF13FC7D80CB
:0309C200E480EFDF
:100B1900020DC7E493A3F8E493A34003F68001F21E
:100B290008DFF48029E493A3F85407240CC8C333DD
:100B3900C4540F4420C8834004F456800146F6DFAC
:100B4900E4800B0102040810204080900DBEE47E71
:100B5900019360BCA3FF543F30E509541FFEE493A1
:100B6900A360010ECF54C025E060A840B8E493A368
:100B7900FAE493A3F8E493A3C8C582C8CAC583CA93
:100B8900F0A3C8C582C8CAC583CADFE9DEE780BE4B
:010DC600002C
:1009C500EF8DF0A4A8F0CF8CF0A428CE8DF0A42E46
:0209D500FE2200
:1009D700C2D5EC30E709B2D5E4C39DFDE49CFCEE3B
:1009E70030E715B2D5E4C39FFFE49EFE120A1BC38E
:1009F700E49DFDE49CFC8003120A1B30D507C3E489
:060A07009FFFE49EFE22A9
:0E0A0D00C3E49FFFE49EFEE49DFDE49CFC22FA
:100A1B00BC000BBE0029EF8DF084FFADF022E4CCBF
:100A2B00F875F008EF2FFFEE33FEEC33FCEE9DEC88
:100A3B00984005FCEE9DFE0FD5F0E9E4CEFD22EDCE
:100A4B00F8F5F0EE8420D21CFEADF075F008EF2F18
:100A5B00FFED33FD4007985006D5F0F222C398FD09
:050A6B000FD5F0EA22A6
:00000001FF
