:03000000020A7081
:0C0A7000787FE4F6D8FD758117020AB704
:080DCC00020800C8020E00003D
:100DA100758901758A65758CFCD28C308DFDC28C7C
:030DB100C28D22CE
:040D4B00AF15AE141E
:100D4F00E4FDFCC3ED9FEE6480F8EC648098500ADC
:0A0D5F00120DA10DBD00010C80E98A
:010D69002267
:0C0DB400758901758BFC758D4BD28E2269
:050DD500C28EC28F2256
:0C0DC000120D89AF0DAE0C120C9E80F7D6
:100BF0008E168F17C2B1D2B07C007D071209D78E36
:100C0000168F17E4F50EF50FAF0FAE0E120B10ACEA
:100C100016AD17EC12090BE4FBFAF9783F12080045
:100C2000120944120D4F050FE50F7002050ED39403
:100C30000AE50E6480948040CFD2B1E51725E0FF2D
:0C0C4000E51633FE120D4FC2B1C2B02207
:100D8900C2B1C2B0120CE7D2AFD2ABD2A8D2AA85F7
:080D9900080C85090D020DB4E0
:100CE700AE12AF137C007D0A1209C58E128F13E571
:100CF700112513F513E5103512F512120B7D8E1021
:100D07008F117F2C7E01120D4FC3E51064809480F4
:0C0D170050CE851208851309AE12AF13F0
:010D230022AD
:060D6A007A007C007E000F
:100D700030800122308105AE04AF0522308205AEFD
:090D800002AF03227E007F632212
:100B7D0075140075151E120D4BC2A3C2A47B037D07
:100B8D00027F01120D6AEF64634E600122120D4B5C
:100B9D00D2A3C2A47B067D057F04120D6AEF6463A8
:100BAD004E600122120D4BC2A3D2A47B097A007DA7
:100BBD00087C007F077E00120D70EF64634E6001AC
:100BCD0022120D4BD2A3D2A47BF67AFFE4FDFC7F5B
:100BDD00FB7EFF120D70EF64634E600122120D4B10
:030BED00020B7D7B
:03001300020C4C90
:100C4C00C0E0C0F0C083C082C0D075D000C000C06E
:100C5C0001C002C003C004C005C006C007C2AF7506
:100C6C000A00750B0085080C85090D7FF47E0112B6
:100C7C000BF0D2AF120DB4D007D006D005D004D0F3
:100C8C0003D002D001D000D0D0D082D083D0F0D00D
:020C9C00E03244
:100C9E008E108F11120B05C2977F0A7E00120D4F18
:100CAE00D2977D0A120AFCC2967F0A7E00120D4F61
:100CBE00D2967D64120AFCC2957F0A7E00120D4FF9
:100CCE00D295AE10AF117C037DE8120B02C2947F59
:090CDE000A7E00120D4FD294228F
:03001B00020D24AF
:100D2400C0E0120DD5050BE50B7002050A64C84539
:100D34000A700EE50D150D7002150C750A00750B81
:070D440000120DB4D0E032F3
:100AFC00AE10AF117C001209D77C007D0A1209D709
:040B0C00AE04AF057F
:100B1000EE7069EFB40A005063900B20F828287338
:100B2000020B3E020B42020B48020B4E020B570215
:100B30000B5B020B61020B67020B70020B74C2901D
:100B40008002D290C291800AC290D2918004D29049
:100B5000D291C292C29322C2908002D290C291805E
:100B60000AC290D2918004D290D291D292C29322A2
:0D0B7000C2908002D290C291C292D2932214
:10080000EC4D6011E8497017ED33EC3304600DE4F2
:10081000FCFFFEFD22E933E8330470F80209B01250
:10082000097B58046009E4CC248150062850090251
:1008300009BA2840030209B7C0E0EB4A7044B98006
:1008400006D0E0FB0209A6EF4E701CBD8008EBFF4E
:10085000EAFEE9FD80EBE98DF0A4FEE5F00208E98F
:10086000E9CDF9EAFEEBFFEF89F0A4FCE5F0CE89D3
:10087000F0A42EFFE435F0CD89F0A42DFEE435F090
:100880008067EF4E7005BD80D780C3EF8BF0A4ACBE
:10089000F0EE8BF0A42CFCE435F0F8EF8AF0A42CF9
:1008A000E5F038FCE433CB8DF0A42CFCE5F03BF80C
:1008B000EE8AF0A42CFCE5F038F8E433CF89F0A4FC
:1008C0002CFCE5F038CF3400CE89F0A42FFFE5F002
:1008D0003EFEE433C98DF0A42EFEE5F039CD8AF05A
:1008E000A42FFFE5F03EFEE43DFD33D0E0FB5007D2
:1008F0000BBB000F0209BAEC2CFCEF33FFEE33FE0A
:06090000ED33FD02099237
:1009060075F020800E75F010800575F0087D007E6C
:10091600007F003392D530D503120A0DEC33401018
:10092600EF33FFEE33FEED33FDEC33FCD5F0ED2275
:0E093600E5F0247EA2D513CC92E7CDCEFF22B1
:10094400EDD2E7CD33EC3392D524814006E4FFFEAB
:10095400FDFC22FCE4CFCECDCC24E0501174FF800A
:10096400EDC3CC13CCCD13CDCE13CECF13CF0470A7
:07097400F030D5DE020A0D90
:10097B00E9D2E7C933E833F892D5EDD2E7CD33ECC2
:07098B0033FC5002B2D5223B
:10099200EC30E7100FBF000C0EBE00080DBD0004C6
:1009A2000BEB6014A2D5EB13FCED92E7FD2274FF72
:1009B200FCFDFEFF22E480F8A2D574FF13FC7D80CB
:0309C200E480EFDF
:100A7C00020DC0E493A3F8E493A34003F68001F2C3
:100A8C0008DFF48029E493A3F85407240CC8C3337B
:100A9C00C4540F4420C8834004F456800146F6DF4A
:100AAC00E4800B0102040810204080900DCCE47E01
:100ABC00019360BCA3FF543F30E509541FFEE4933F
:100ACC00A360010ECF54C025E060A840B8E493A306
:100ADC00FAE493A3F8E493A3C8C582C8CAC583CA31
:100AEC00F0A3C8C582C8CAC583CADFE9DEE780BEE9
:010DD400001E
:1009C500EF8DF0A4A8F0CF8CF0A428CE8DF0A42E46
:0209D500FE2200
:1009D700C2D5EC30E709B2D5E4C39DFDE49CFCEE3B
:1009E70030E715B2D5E4C39FFFE49EFE120A1BC38E
:1009F700E49DFDE49CFC8003120A1B30D507C3E489
:060A07009FFFE49EFE22A9
:0E0A0D00C3E49FFFE49EFEE49DFDE49CFC22FA
:100A1B00BC000BBE0029EF8DF084FFADF022E4CCBF
:100A2B00F875F008EF2FFFEE33FEEC33FCEE9DEC88
:100A3B00984005FCEE9DFE0FD5F0E9E4CEFD22EDCE
:100A4B00F8F5F0EE8420D21CFEADF075F008EF2F18
:100A5B00FFED33FD4007985006D5F0F222C398FD09
:050A6B000FD5F0EA22A6
:00000001FF
